:020000040800F2
:100000002004002025010008850100088501000862
:100010008501000885010008850100080000000036
:100020000000000000000000000000008501000842
:100030008501000800000000850100088501000816
:100040008501000885010008850100088501000878
:100050008501000885010008850100088501000868
:100060008501000885010008850100088501000858
:100070008501000885010008850100088501000848
:1000800085010008850100088501000800000000C6
:1000900000000000000000000000000085010008D2
:1000A0008501000885010008850100088501000818
:1000B0008501000885010008850100088501000808
:1000C00085010008850100088501000885010008F8
:1000D00085010008850100088501000885010008E8
:1000E0008501000885010008850100080000000066
:1000F0000000000000000000000000000000000000
:1001000000000000000000000000000000000000EF
:1001100000000000000000008501000885010008C3
:100120005FF808F180B582B000AF114B7B60114BD6
:100130003B6007E03B681A1D3A607A68111D7960E0
:1001400012681A603B680C4A9342F3D30B480C497F
:100150004FF000028842B8BF40F8042BFADB00F0F1
:1001600015F800F0ADF900BF0837BD4680BD00BFEF
:100170008809000800000020000000200000002086
:100180002000002080B400AFFEE7000080B500AF83
:10019000174A174B1B6843F0010313601449144BB3
:1001A0005A68144B13404B60114A114B1B6823F0E3
:1001B000847323F4803313600D4A0D4B1B6823F4C2
:1001C000802313600A4A0A4B5B6823F4FE035360E2
:1001D000074B4FF41F029A60054B0022DA6200F0D1
:1001E0000DF8054B4FF000629A6000BF80BD00BF64
:1001F000001002400000FFF800ED00E080B500AF05
:1002000000F002F800BF80BD80B483B000AF0023CF
:100210007B6000233B60304A2F4B1B6843F48033E4
:1002200013602D4B1B6803F400333B607B68013384
:100230007B603B68002B03D17B68B3F5A06FF0D1E6
:10024000254B1B6803F40033002B02D001233B60D5
:1002500001E000233B603B68012B37D11E4A1E4B57
:100260005B6853601C4A1C4B5B6853601A4A1A4B0C
:100270005B685360184A184B5B6823F47C13536027
:10028000154A154B5B6843F498135360124A124B9E
:100290001B6843F08073136000BF0F4B1B6803F0B3
:1002A0000073002BF9D00C4A0B4B5B6823F003035F
:1002B0005360094A084B5B6843F00203536000BF78
:1002C000054B5B6803F00C03082BF9D100BF0C371A
:1002D000BD4680BC704700BF0010024080B489B0AA
:1002E00000AF786039600023FB6100233B6100238D
:1002F000BB610023FB6000237B610023BB603B6884
:10030000DB7803F00F03FB613B68DB7803F010033D
:10031000002B05D03B689B781A46FB691343FB61B1
:100320003B681B88DBB2002B44D07B681B687B6179
:100330000023BB6138E00122BB6902FA03F3FB60D2
:100340003B681B881A46FB6813403B613A69FB68AF
:100350009A4226D1BB699B00FB600F22FB6802FA20
:1003600003F3BB60BB68DB437A6913407B61FA69C6
:10037000FB6802FA03F37A6913437B613B68DB781D
:10038000282B05D10122BB699A407B685A6108E09D
:100390003B68DB78482B04D10122BB699A407B681B
:1003A0001A61BB690133BB61BB69072BC3D97B6889
:1003B0007A691A603B681B88FF2B46D97B685B68AB
:1003C0007B610023BB613AE0BB690833012202FA7A
:1003D00003F3FB603B681B881A46FB6813403B61D4
:1003E0003A69FB689A4227D1BB699B00FB600F22E8
:1003F000FB6802FA03F3BB60BB68DB437A69134016
:100400007B61FA69FB6802FA03F37A6913437B6143
:100410003B68DB78282B05D1BB69083301229A4061
:100420007B685A613B68DB78482B05D1BB69083390
:1004300001229A407B681A61BB690133BB61BB69C9
:10044000072BC1D97B687A695A6000BF2437BD4643
:1004500080BC704780B485B000AF78600B467B806D
:100460000023FB737B689A687B881340002B02D0C3
:100470000123FB7301E00023FB73FB7B1846143759
:10048000BD4680BC704780B483B000AF78600B4637
:100490007B807A887B681A6100BF0C37BD4680BCC0
:1004A000704780B483B000AF78600B467B807A8859
:1004B0007B685A6100BF0C37BD4680BC70470000A6
:1004C00080B582B000AF00F08DF800F0B5F93B1DAB
:1004D00019463048FFF702FF0121042000F002FA1C
:1004E0000123BB804823FB710223BB7101212948F2
:1004F000FFF7C9FF01212748FFF7D3FF00210420A0
:1005000000F00EF9244B254A1068186092889A80F2
:10051000214800F07DF90121032000F001F91E4A75
:100520001F4B03CB106051601B8813811A4800F0E9
:100530006FF91C4800F03EF800F0D8F8012115488A
:10054000FFF788FF0346012BD8D10021002000F0DF
:10055000E7F8114B144A10681860918892799980D5
:100560009A710D4800F054F90121002000F0D8F8EC
:10057000094A0E4B03CB10605160074800F048F960
:10058000084800F017F800F0B1F8094800F012F838
:10059000B4E700BF00080140000000202009000867
:1005A00028090008400D0300340900083C09000830
:1005B000E093040080B485B000AF78600023FB6056
:1005C00002E0FB680133FB607A6813469B0013442A
:1005D0005B001A46FB689A42F3D800BF1437BD4649
:1005E00080BC704780B500AF0121082000F07AF987
:1005F000074B02229A70064B4FF47C421A80044B40
:100600001022DA7002490348FFF768FE00BF80BD80
:1006100018000020000C014080B582B000AF0346F6
:10062000FB71FB791B039BB219460E48FFF72BFFAA
:10063000C820FFF7BFFF4FF400610A48FFF723FF10
:100640006420FFF7B7FF4FF400610648FFF729FF6A
:100650004FF470410348FFF724FF00BF0837BD4641
:1006600080BD00BF000C014080B582B000AF0346E2
:10067000FB71FB791B09DBB21846FFF7CDFFFB7955
:1006800003F00F03DBB21846FFF7C6FF00BF0837C1
:10069000BD4680BD80B582B000AF0346FB714FF40C
:1006A00080610E48FFF7FDFEFB79013B0C4AD25CEE
:1006B0000C4B1A700B4B1B781846FFF7D5FF4FF405
:1006C00080610648FFF7DFFE064B00221A70064ADB
:1006D000FB79137000BF0837BD4680BD000C014098
:1006E00044090008140000201C00002080B500AF61
:1006F0004FF480610948FFF7D4FE0120FFF7B4FFF3
:100700004FF47A70FFF756FF4FF480610348FFF70C
:10071000BAFE0120FFF7BEFF00BF80BD000C014004
:1007200080B582B000AF03460A46FB711346BB7129
:100730004FF480610E48FFF7B4FEBB790D4AD25CDE
:10074000FB791344DAB20C4B1A700B4B1B7818462A
:10075000FFF78AFF4FF480610548FFF794FEBB79ED
:100760000133DAB2054B1A7000BF0837BD4680BDB1
:10077000000C014044090008140000201C00002067
:1007800080B582B000AF0346FB714FF480611D4815
:10079000FFF779FEFB79BF2B07D9FB79C03B1A4ADB
:1007A000D35C1846FFF760FF03E0FB791846FFF7BC
:1007B0005BFF164B1B780133DAB2144B1A70134BE4
:1007C0001B78282B0DD0282B02DC142B05D014E02D
:1007D0003C2B0AD0502B0CD00FE00220FFF75AFF21
:1007E0000BE00320FFF756FF07E00420FFF752FF5E
:1007F00003E00120FFF74EFF00BF00BF0837BD46F2
:1008000080BD00BF000C0140480900081400002012
:1008100080B582B000AF786006E07B685A1C7A60D1
:100820001B781846FFF7ACFF7B681B78002BF4D1D0
:1008300000BF0837BD4680BD80B582B000AF4FF421
:1008400000612748FFF72DFE4FF480612448FFF731
:1008500028FE41F28830FFF7ADFE3320FFF7DCFEC3
:100860003320FFF7D9FE3320FFF7D6FE2220FFF713
:10087000D3FE2820FFF7F8FE0120FFF7F5FE102039
:10088000FFF7F2FE0620FFF7EFFE0C20FFF7ECFE6D
:100890004023FB7116E04FF47A70FFF78BFE4FF4A4
:1008A00080610F48FFF7FDFDFB791846FFF7DCFE7E
:1008B0004FF47A70FFF77EFE0020FFF761FFFB79AF
:1008C0000133FB71FB795E2BE5D94FF4806104485D
:1008D000FFF7D9FDFFF70AFF00BF0837BD4680BD0F
:1008E000000C014080B483B000AF78600B46FB7011
:1008F000FB78002B06D00949084B9A697B681343A3
:100900008B6106E00549054B9A697B68DB43134020
:100910008B6100BF0C37BD4680BC704700100240A1
:100920005052455353000000425554544F4E2042FC
:1009300031000000425554544F4E00005052455370
:100940005345440080C090D041A042A1E045A3A4FB
:10095000A5A64BA74D484FA8504354A9AA58E1ABB0
:10096000ACE2ADAE62AFB0B161B2B3B4E365B6B7FD
:10097000B8B9BABBBCBD6FBE7063BF79E478E5C0DF
:08098000C1E6C2C3C4C5C6C72D
:0400000508000000EF
:00000001FF
